:020000040000FA
:100000000C94A7010C94D8010C94D8010C94D8013D
:100010000C94D8010C94D8010C94D8010C94D801FC
:100020000C94D8010C94D8010C94D8010C94D801EC
:100030000C94D8010C94D8010C94D8010C94D801DC
:100040000C94D8010C94D8010C94D8010C94D801CC
:100050000C94D8010C94D8010C94D8010C94E5139D
:100060000C94D8010C9459140C942F140C94D801AE
:100070000C94D8010C94D8010C94D8010C94D8019C
:100080000C94D8010C94D8010C94D8010C94D8018C
:100090000C94D8010C94D8010C94D8010C94D8017C
:1000A0000C94D8010C94D8010C94D8010C94D8016C
:1000B0000C94D8010C94D8010C94D8010C94D8015C
:1000C0000C94D8010C94D8010C94D8010C94D8014C
:1000D0000C94D8010C94D8010C94D8010C94D8013C
:1000E0000C94D8010C945C020C94C8020C9430025D
:1000F0000C94D0030C9494060C9452040C940205B6
:100100000C9441070C943A040C943E040C942E0574
:100110000C9460060C94C0120C949A040C94D705AD
:100120000C9413080C9444020C94AD050C949B029F
:100130000C9406080C943D040C948F140C946306E4
:100140000C946C040C9433060C9471060C941513E7
:100150000C94E6050C9411060C9457130C94CF03E1
:100160000C9434050C94CB060C94CA040C94DF0454
:100170000C94C7040C947E030C9401080C94850421
:100180000C949D060C9448060C94D3060C9481059F
:100190000C9440020C94A0130C9425020C9420069D
:1001A0000C94F9050C94BE060C942D020C940A02D2
:1001B0000C9482040C9421020C9431050C94890651
:1001C0000C940F020C9431030C94D7020C9460022F
:1001D0000C94A4070C947F040C9437040C94A70689
:1001E0000C947C060C9436020C9499020C945E05D7
:1001F0000C943A020C9448020C9411130C9456027D
:100200000C9445070C9429020C9466060C94C806BD
:100210000C9496020C94EB020C9413130C944E0263
:100220000C94AD060C942B040C9453060C94B4045B
:100230000C94F9020C94AA060C94FC050C94B506D7
:100240000C9452020C943604F1080900FA080000DC
:10025000FD08000000090000030900004802050035
:1002600000002200250028002B002E003100340061
:1002700002010000050108010B0105050505070540
:1002800008080808020202020A0A08080404040412
:10029000010101010101010103030303030303033E
:1002A000040707070C0C0C0C0C0C0C0C02020202CD
:1002B00006060606060606060B0B0B0B0B0B0B0BB6
:1002C0000102102020080810204010204080020168
:1002D000020108040201010204081020408080404D
:1002E000201008040201800402018040201008044C
:1002F00002010804020101020408102040800102EA
:1003000004081020408000000A0B02090C0D0E08A2
:1003100007030401000000000000000000000000CE
:1003200000000000000000000000000000000000CD
:10033000000012111000000000000000000000008A
:100340000000000000000000000000008F141124D5
:100350001FBECFEFDFEFDEBFCDBF00E00CBF15E06B
:10036000A0E0B2E0E8EDF7E300E00BBF02C00790C9
:100370000D92A833B107D9F729E0A8E3B5E001C091
:100380001D92A932B207E1F711E0C7EAD1E000E01F
:1003900006C021970109802FFE010E94031AC63A68
:1003A000D10780E00807A9F70E940F150C94EA1BFB
:1003B0000C940000282F30E0F901EA5FFC4F949183
:1003C000F901E054FD4F449126583D4FF901249125
:1003D000222309F435C0992311F191509231F8F498
:1003E000E92FF0E08827E850FE4F8F4F0C94031A56
:1003F00029022D020A02210225020F0230023602D2
:100400003A024002440248024E0252020F025602D1
:100410005C026002809180008F7780938000E22FE1
:10042000F0E0EE0FFF1FE05AFD4FA591B4918FB79A
:10043000F894EC91611148C040954E234C938FBFC6
:100440000895809180008F7DE8CF80918000877F24
:10045000E4CF84B58F7784BDE2CF84B58F7DFBCFA9
:100460008091B0008F778093B000D9CF8091B00099
:100470008F7DF9CF809190008F7780939000CFCFC0
:10048000809190008F7DF9CF80919000877FF5CF8C
:100490008091A0008F778093A000C1CF8091A000B1
:1004A0008F7DF9CF8091A000877FF5CF80912001CB
:1004B0008F7780932001B3CF809120018F7DF9CF7A
:1004C00080912001877FF5CF4E2BB8CF82309105E8
:1004D00038F0880F991F880F991F05970197F1F73A
:1004E00008953FB7F89480914C0890914D08A091E1
:1004F0004E08B0914F0826B5A89B05C02F3F19F0B4
:100500000196A11DB11D3FBFBA2FA92F982F882793
:10051000BC01CD01620F711D811D911D42E0660F6E
:10052000771F881F991F4A95D1F7089581E090E0C1
:100530000895C0960895AF92BF92CF92DF92EF9246
:10054000FF920F931F93CF93DF936C017B018B017D
:10055000040F151FEB015E01AE18BF08C017D107CD
:1005600059F06991D601ED91FC910190F081E02D57
:10057000C6011995892B79F7C501DF91CF911F919C
:100580000F91FF90EF90DF90CF90BF90AF900895C4
:10059000FC01538D448D252F30E0842F90E0821B89
:1005A000930B541710F0CF96089501970895FC010E
:1005B000918D828D981761F0A28DAE0FBF2FB11D66
:1005C0005D968C91928D9F5F9F73928F90E00895BE
:1005D0008FEF9FEF0895FC01918D828D981731F078
:1005E000828DE80FF11D858D90E008958FEF9FEFCC
:1005F0000895FC01918D228D892F90E0805C9F4FA2
:10060000821B91098F739927089580E598E00E94D5
:10061000F90221E0892B09F420E0822F0895FC01E2
:10062000A48DA80FB92FB11DA35ABF4F2C91848D53
:1006300090E001968F739927848FA689B7892C93B0
:10064000A089B1898C91837080648C93938D848D03
:10065000981306C00288F389E02D80818F7D808306
:100660000895EF92FF920F931F93CF93DF93EC01C6
:1006700081E0888F9B8D8C8D98131AC0E889F98949
:10068000808185FF15C09FB7F894EE89FF8960834C
:10069000E889F98980818370806480839FBF81E0CD
:1006A00090E0DF91CF911F910F91FF90EF9008950F
:1006B000F62E0B8D10E00F5F1F4F0F731127E02EEA
:1006C0008C8D8E110CC00FB607FCFACFE889F98922
:1006D000808185FFF5CFCE010E940F03F1CFEB8D16
:1006E000EC0FFD2FF11DE35AFF4FF0829FB7F894F6
:1006F0000B8FEA89FB8980818062CFCFCF93DF9314
:10070000EC01888D8823B9F0AA89BB89E889F98929
:100710008C9185FD03C0808186FD0DC00FB607FC5E
:10072000F7CF8C9185FFF2CF808185FFEDCFCE0191
:100730000E940F03E9CFDF91CF91089580E090E010
:10074000892B29F00E94050381110E94000080E09E
:1007500090E0892B49F080E090E0892B29F00E94FD
:10076000000081110E94000080E090E0892B49F098
:1007700080E090E0892B29F00E94000081110E9406
:10078000000080E090E0892B49F080E090E0892B28
:1007900029F00E94000081110C9400000895089532
:1007A000CF92DF92EF92FF921F93CF93DF93EC01F2
:1007B0001E81112309F446C0CF80D884E984FA84CD
:1007C00020E030E040EA51E4C701B6010E94B319CD
:1007D000181654F08C85811102C081E08B878D89B9
:1007E000811102C081E08C8B20E030E040EA52E4CD
:1007F000C701B6010E94DC1987FD08C08C858111F4
:1008000001C01B868D89811101C01C8A1A8920E0D4
:1008100030E044EB52E4C701B6010E94DC1987FDC9
:1008200016C0111102C081E0898B8F85811102C031
:1008300081E08E87DF91CF911F91FF90EF90DF9045
:10084000CF900895CA80DB80EC80FD80B9CF111174
:10085000F1CF198AEFCFFB0110821182128213822D
:10086000FA0110821182128213820895089590E095
:1008700080E0089590E080E0089508958FEF94E07F
:100880000895282F8EE592E0A0E0BB2730E0220FEC
:10089000331F820F931FA11DB11DABBFFC018791B8
:1008A00096910895CF93DF9300D01F92CDB7DEB716
:1008B000FB014081518162817381FC0124812111FE
:1008C00004C040835183628373830F900F900F9015
:1008D0000F90DF91CF910895FC018481882351F01E
:1008E00085819681A781B085FB0180839183A28356
:1008F000B383089580819181A281B381F5CFFC01FA
:1009000014820895FC0114820895CF93DF93FC01B3
:10091000EB0188819981AA81BB8121E024838583B1
:100920009683A783B08780839183A283B383DF916B
:10093000CF910895CF93DF9300D01F92CDB7DEB74C
:10094000FB014081518162817381FC01248121116D
:1009500004C040835183628373830F900F900F9084
:100960000F90DF91CF910895FC018481882351F08D
:1009700085819681A781B085FB0180839183A283C5
:10098000B383089580819181A281B381F5CFFC0169
:1009900014820895CF93DF93FC01EB018881998144
:1009A000AA81BB8121E0248385839683A783B087B6
:1009B00080839183A283B383DF91CF910895FC015B
:1009C000DB01808581111DC07C9111966C9111977E
:1009D00012965C91129713964C91139714963C9132
:1009E000149715962C91159716969C911697179615
:1009F0008C917083618352834383348325839683F0
:100A000087830895FC01DB0180858823F1F07185DF
:100A100062855385448535852685978580897C93B5
:100A200011966C93119712965C93129713964C93B0
:100A3000139714963C93149715962C931597169626
:100A40009C93169717968C930895708161815281BB
:100A500043813481258196818781E1CFFC01108615
:100A60000895FC0110860895FC01DB017C9111962C
:100A70006C91119712965C91129713964C91139763
:100A800014963C91149715962C91159716969C9157
:100A9000169717968C91A1E0A0877187628753877C
:100AA0004487358726879787808B7083618352833D
:100AB000438334832583968387830895FC01DB0178
:100AC000808581111DC07C9111966C9111971296B1
:100AD0005C91129713964C91139714963C9114972E
:100AE00015962C91159716969C91169717968C91A2
:100AF0007083618352834383348325839683878302
:100B00000895FC01DB0180858823F1F07185628501
:100B10005385448535852685978580897C931196F4
:100B20006C93119712965C93129713964C931397AC
:100B300014963C93149715962C93159716969C93A0
:100B4000169717968C930895708161815281438125
:100B50003481258196818781E1CFFC01DB017C9185
:100B600011966C91119712965C91129713964C9175
:100B7000139714963C91149715962C9115971696E9
:100B80009C91169717968C91A1E0A0877187628738
:100B900053874487358726879787808B7083618347
:100BA0005283438334832583968387830895FC018E
:100BB000248121110AC0FB0140815181628173812E
:100BC000FC0140835183628373830895FC01848117
:100BD000882351F085819681A781B085FB018083B0
:100BE0009183A283B383089580819181A281B3818F
:100BF000F5CFFC0114820895CF93DF93FC01EB0144
:100C000088819981AA81BB8121E024838583968391
:100C1000A783B08780839183A283B383DF91CF9131
:100C20000895FC01248121110AC0FB0140815181FA
:100C300062817381FC0140835183628373830895D1
:100C4000FC018481882351F085819681A781B0853C
:100C5000FB0180839183A283B38308958081918176
:100C6000A281B381F5CFCF93DF93FC01EB018881A3
:100C70009981AA81BB8121E0248385839683A78300
:100C8000B08780839183A283B383DF91CF9108954E
:100C9000FC012281211106C0FB0120813181FC0170
:100CA000318320830895FC018281882331F0838180
:100CB0009481FB0191838083089580819181F9CF94
:100CC000FC0112820895FC0112820895FC01DB01EF
:100CD0008D919C9121E022839483838391838083EF
:100CE0000895FC012281211106C0FB012081318180
:100CF000FC01318320830895FC018281882331F037
:100D000083819481FB019183808308958081918107
:100D1000F9CFFC01DB018D919C9121E0228394832A
:100D20008383918380830895FC012181211104C074
:100D3000FB012081FC0120830895FC01818188232F
:100D400021F08281FB01808308958081FBCFFC012B
:100D500011820895FC0111820895FC01DB018C9140
:100D600091E09183828380830895FC012181211188
:100D700004C0FB012081FC0120830895FC018181D6
:100D8000882321F08281FB01808308958081FBCF3D
:100D9000FC0111820895FC01DB018C9191E09183AB
:100DA000828380830895FC018181882321F08281E0
:100DB000FB01808308958081FBCF0F931F938823CD
:100DC00039F060E070E080E090E01F910F910895AD
:100DD0000EE512E020E033272BBFF80107911691B2
:100DE00060177107B0F48CE592E0A0E0BB27ABBFC1
:100DF000FC0187919691660F771F660F771F680F2A
:100E0000791FFB0125913491FB0132968491B90140
:100E1000DBCF60E070E0D8CF0E94DD06672B59F091
:100E2000853148F499E0899FF0011124E25FFB4F7E
:100E3000808590E0089590E080E008950F931F93DF
:100E4000CF938A010E94DD06E82FCB010097B1F015
:100E5000E531A0F429E0E29FF0011124E25FFB4FAD
:100E6000C085CC2359F00480F581E02DB801199597
:100E70008C2F90E0CF911F910F91089590E080E02A
:100E8000F9CF9E5FFC0110820895EF92FF920F93BD
:100E90001F93CF93DF93CDB7DEB7CC5FD2400FB6B1
:100EA000F894DEBF0FBECDBFFB0130813F3708F0A5
:100EB0003EE7FB01BE016F5F7D4FDB0120E02317A2
:100EC00051F0428151814527542745274D935D9329
:100ED0002F5F3296F4CF30E0DE01119650E040E013
:100EE0007D014217530748F4FB0101911191BF01A5
:100EF0000D931D934F5F5F4FF4CFD901AA0FBB1F16
:100F0000AE0DBF1D1D921C92DC01BE5F41E04C93F3
:100F1000C150DE4F39832883CF5FD140119680E0E6
:100F200092E0F70101900D920197E1F7C450DD4F77
:100F30000FB6F894DEBF0FBECDBFDF91CF911F91EA
:100F40000F91FF90EF900895EF92FF920F931F93F0
:100F5000CF93DF93CDB7DEB7CC5FD2400FB6F89416
:100F6000DEBF0FBECDBFFB0130813F3708F03EE74B
:100F7000FB01BE016F5F7D4FDB0120E0231751F0C5
:100F8000428151814527542745274D935D932F5F1B
:100F90003296F4CF30E0DE01119650E040E07D0162
:100FA0004217530748F4FB0101911191BF010D93C2
:100FB0001D934F5F5F4FF4CFA901440F551F4E0D96
:100FC0005F1DFA0111821082C150DE4F39832883E0
:100FD000CF5FD14020E032E0F701DC0101900D92BB
:100FE00021503040D9F7C450DD4F0FB6F894DEBF22
:100FF0000FBECDBFDF91CF911F910F91FF90EF906A
:1010000008958F5F9E4FFC0110820895FC0121819D
:10101000211108C021E0FB013081311101C020E025
:10102000FC0120830895FC0181E0DB019C9191117A
:1010300001C080E091E091838283808308952091B4
:101040003A05209530E0F901E25FFC4F90819095E0
:10105000225F3D4FD9018C9140913805509139055F
:1010600042505109EAE3F5E031969F012A53354099
:101070002417350770F420819227292F30E0D901F9
:10108000A25FBC4F9C919827225F3D4FD9018C9164
:10109000EBCF089523E030E03093390520933805F5
:1010A000EAE3F5E090911908908380588183628388
:1010B00008950F931F93582F577001E010E020E020
:1010C00030E004C0000F111F221F331F5A95D2F7C2
:1010D00023E0969587952A95E1F79927E0912308D3
:1010E000F0912408662321F0E0912908F0912A0864
:1010F000E80FF91F8081442329F0082B00831F91FA
:101100000F91089500950823F9CF2F923F924F92A7
:101110005F926F927F928F929F92AF92BF92CF9287
:10112000DF92EF92FF920F931F93CF93DF93CDB790
:10113000DEB7C755D1090FB6F894DEBF0FBECDBFDD
:1011400010E000E0F801EE0FFF1FE755F84F0190A7
:10115000F081E02D309749F041E08081811101C09C
:1011600040E060E0C8010E9459080F5F1F4F08333C
:10117000110541F7E0901A08F0901B0809E617E006
:101180002E961FAF0EAF2E978701005C1F4FF70101
:1011900029E637E0D9018D919D919D01009729F0B5
:1011A000DC018D919C919183808332960E171F07ED
:1011B00089F7D12CC12CF601EE0FFF1FE750F94F34
:1011C0000190F081E02D309749F041E0808181115C
:1011D00001C040E061E0C6010E945908BFEFCB1A90
:1011E000DB0AE8E3CE16D10431F749EB56E0E09193
:1011F0002608F09127089F01205C3F4FDA018D916E
:101200009D91AD01009729F0DC018D919C91918316
:10121000808332962E173F0789F7E1E9F6E0609662
:10122000FFAFEEAF6097F80108E6E00EF11C21E990
:1012300036E0D9018D919D919D01009729F0DC0147
:101240008D919C91918380833296EE16FF0689F7EB
:10125000E9E6F6E06296FFAFEEAF6297E0911D0817
:10126000F0911E089F01205B3F4F09E616E0D80170
:101270008D919D918D01009749F0DC014D915D911B
:101280006D917C9140835183628373833496E2171E
:10129000F30769F7E1E4F6E06496FFAFEEAF649719
:1012A000E0912008F09121089F0120563F4F81E4F2
:1012B00096E0DC01CD90DD90CD01C114D104F1F0B8
:1012C000D601EC901196FC90119712960C91129702
:1012D00013961C91139714967C91149715966C9104
:1012E000159716965C91169717964C91E082F182AD
:1012F0000283138374836583568347833896E2178A
:10130000F307B9F6109239051092380580913F061F
:1013100090914006DC01ED91FC910084F185E02D77
:101320001995892B09F483C080913F06909140065E
:10133000DC01ED91FC910084F185E02D199520915F
:10134000380530913905A0913F06B0914006ED91E6
:10135000FC9111970084F185E02D2817390768F476
:10136000CD011995909339058093380580913C06FD
:1013700090913D060E946602D7CFCD01199581302C
:1013800091400CF054C080913F0690914006DC01E2
:10139000ED91FC910084F185E02D199506970CF4F0
:1013A00046C0FAE3AF2EF5E0BF2E75010091380577
:1013B00010913905C7018A5395408017910778F439
:1013C00080913F0690914006DC01ED91FC910284F2
:1013D000F385E02D1995F70181937F01E7CFD09038
:1013E0003B058FEB8D0D853080F00E941F08980122
:1013F000265C3A4FF9013297408121503109D901D9
:101400002C91342F2817390791F490913A05809147
:101410001908981709F4DDC080913F0690914006A5
:10142000DC01ED91FC910680F781E02D199540914A
:1014300023085091240830E020E0F901EE0FFF1F4F
:10144000E755F84F0190F081E02D309799F0D901E0
:1014500083E0B695A7958A95E1F7A40FB51F8C9107
:1014600090E0622F677002C0959587956A95E2F7C4
:10147000817080832F5F3F4F28333105F1F68091D3
:101480001A0890911B08BC01605C7F4FDC012E960E
:10149000EEADFFAD2E97219131912E96FFAFEEAFBD
:1014A0002E972115310531F04D915C911197F9017D
:1014B0005183408312966A177B0749F7FB018859CD
:1014C0009F4F6096AEADBFAD60974D915D916096B8
:1014D000BFAFAEAF60974115510529F02081318132
:1014E000DA012D933C9332968E179F0751F7E091C6
:1014F0001D08F0911E08CF01805B9F4F6296AEAD34
:10150000BFAD62972D913D916296BFAFAEAF62972E
:101510002115310551F04081518162817381D901DA
:101520004D935D936D937C93139734968E179F071D
:1015300029F7E0912008F0912108CF0180569F4FB4
:101540006496AEADBFAD6497ED90FD906496BFAF6D
:10155000AEAF6497E114F104F1F000811181728162
:1015600063815481458136812781D7010C9311967F
:101570001C93119712967C93129713966C93139762
:1015800014965C93149715964C93159716963C9366
:10159000169717962C9338968E179F0789F6C95A77
:1015A000DF4F0FB6F894DEBF0FBECDBFDF91CF91F6
:1015B0001F910F91FF90EF90DF90CF90BF90AF9071
:1015C0009F908F907F906F905F904F903F902F9063
:1015D0000895025011091093390500933805609061
:1015E0003C0570903D0576246724762480913C0567
:1015F00000913E0510913F05102701271027E0902C
:101600003D05F0903E05FE24EF24FE24C0903F05EA
:10161000BFE0DB1609F4C6C5BD15F0F1E3E0DE1648
:1016200009F495C1ED1570F0F1E0DF1609F437C447
:10163000E2E0CE2EDC1409F4C0C461E070E08D2D30
:1016400090E027C075E0E72EDE1409F48CC5DE14A7
:1016500008F441C566E0F62EDF10EFCF20911C089C
:1016600080911F0890E0880F991FE22FF0E08E0F05
:101670009F1F40912208A4E04A9FA0011124480F17
:10168000591F6416750608F455C062E070E086E0E4
:1016900090E00E944A085BC022E4D21609F415C704
:1016A0002D15E8F030E1D31609F46FC241E4D412ED
:1016B000C4CFD0923B0581E080933C058EE78093B8
:1016C0003D0580E00E94410490933E0580933F05D4
:1016D00086E090E0909339058093380538C054E453
:1016E000D51609F477C6D51608F402C685E4D812D3
:1016F000A4CFD0923B058EE780933C0581E2E7E0E2
:10170000F5E09E012F5F3F4FD90101900D928A9520
:10171000E1F7ADE3B5E0A901CA01821B930BFA0121
:101720006191AF01FD01EA53F540662309F41DC73D
:101730006D93F2CF6E167F06D8F4660C771CE0919D
:101740001A08F0911B08E60DF71D118300838091A4
:1017500038059091390502968130914008F481C591
:1017600080913B0564E070E090E00E944A0879C5F2
:1017700068167906F0F5A80170E060E080911D0818
:1017800090911E0860FC1CC06301CE1ADF0AF601AE
:10179000EE0FFF1FEC7FF370E80FF91F808191813E
:1017A000A281B381AA27BB27BA0155274427842BDE
:1017B000952BA62BB72B80839183A283B383C7CFAE
:1017C000E095F095E60DF71DEE0FFF1FEC7FF3702F
:1017D000E80FF91F00811181228133810027112731
:1017E000042B152B262B372B008311832283338365
:1017F000AECF9301237033274801B12CA12CC12C0B
:10180000D12C7601E0912008F091210821153105B5
:1018100049F5681A790A660C771C08EF602207E020
:101820007022E60DF71D5080618072801381B481B3
:10183000A581940140E050E060E070E080E090E03D
:1018400000E30E946A1A25292083632A6182742A90
:101850007282152B1383B62BB483A72BA5838683A3
:10186000978375CF2130310541F51FEF611A710A59
:10187000681A790A660C771C28EF622227E0722228
:10188000E60DF71D5080618072801381B681A781BB
:101890009401A501B601C70100E20E946A1A522A0A
:1018A0005082632A6182742A7282152B13836483A7
:1018B00075838B2B86839A2BD3CF2230310529F564
:1018C00032E0630E711C681A790A660C771C48EFC7
:1018D000642247E07422E60DF71D50806180748019
:1018E0001581B681A7819401A501B601C70100E168
:1018F0000E946A1A522A5082632A61824283538369
:10190000762A7482172B1583D4CF53E0650E711C91
:10191000681A790A660C771C88EF682287E07822BB
:10192000E60DF71D5281438134812581968187819F
:10193000808291825A2952834B2943833C293483E4
:101940002D2925839E2996838F29878300CFC8015F
:10195000019763E070E08D379105C8F46301C00E14
:10196000D11E20911C08E0911F08F0E0EE0FFF1F30
:10197000E20FF11D80912208A4E08A9FC00111248A
:101980008E0F9F1FC816D90628F062E070E083E032
:1019900090E07FCE000F111F0D5F1F4F1093390590
:1019A00000933805AAE3B5E01196CD018A5395401E
:1019B0008017910710F41C92F7CF83E080933B05CA
:1019C000035000933C05E0902008F090210880909F
:1019D0001D0890901E0820901A0830901B08A22F16
:1019E000B0E02896BFAFAEAF289783E090E02C011F
:1019F0004E1A5F0AA095B095BEAFADAFC614D7041E
:101A000009F4A5CE2896AEADBFAD28976A167B0621
:101A100050F49301220F331F220D331DD9018C91F5
:101A200011963C911CC06E167F0688F560FC24C0A0
:101A3000C3012896AEADBFAD28978A1B9B0B880FBC
:101A4000991F8C7F9370880D991DDC014D915D91DC
:101A50006D917C91AB0166277727842F352FD501B7
:101A600013963C93139714968C93B2E0AB0EB11C73
:101A70000FEF601A700AC2CF2DAD3EAD260D371D97
:101A8000220F331F2C7F3370280D391DC7CF8301E0
:101A9000037011270115110521F583010E1B1F0B82
:101AA000000F111F087F17700E0D1F1DD8012C91FC
:101AB00011963C91119712964C91129713965C9146
:101AC000139714966C91149715967C91159716960A
:101AD0008C91169717969C9100E30E94851A822F8D
:101AE000BECF0130110511F50E1B1F0B060D171D82
:101AF000000F111F087F17700E0D1F1DD8012C91AC
:101B000011963C91119712964C91129713965C91F5
:101B1000139714966C91149715967C9115971696B9
:101B20008C91169717969C9100E2D7CF0230110541
:101B300011F50E1B1F0B060D171D000F111F087F3F
:101B400017700E0D1F1DD8012C9111963C91119705
:101B500012964C91129713965C91139714966C9170
:101B6000149715967C91159716968C911697179643
:101B70009C9100E1B2CF9201260D371D220F331F39
:101B8000287F37702E0D3F1D49CF20914005C80199
:101B900001978B37910530F4C801880F991F2817DA
:101BA000190629F063E070E080E190E072CDD30186
:101BB000A00FB11F2A96BFAFAEAF2A9720901C0886
:101BC00080901F08912C880C991C312C820C931C3E
:101BD00080912208B4E08B9FC0011124880D991DCB
:101BE0002A96EEADFFAD2A97E817F90718F062E0E4
:101BF00070E0DACF86E090E0909339058093380565
:101C0000D0923B0570923C0560923D0510923E05D6
:101C100000933F054090200850902108C0901D0877
:101C2000D0901E082C96DFAECEAE2C9720911A08CD
:101C300030911B08C301880F991F7901E80EF91E26
:101C40002896FFAEEEAE2897D301A819B909C101B5
:101C500080959095FC01E80DF91D6696FFAFEEAFFB
:101C600066976401C218D3086896DFAECEAE689757
:101C70002A96EEACFFAC2A976E147F0409F4F1C2E9
:101C8000F50147818085542F482F62147304B8F4FE
:101C90002896EEADFFAD2897518340832896EEAD90
:101CA000FFAD289732962896FFAFEEAF2897119692
:101CB000FFEF6F1A7F0A02E0A00EB11CD9CF6814A3
:101CC0007904E8F570E060E060FC22C06896EEAD53
:101CD000FFAD6897EA0FFB1FEE0FFF1FEC7FF3705D
:101CE0002C96CEACDFAC2C97EC0DFD1D0081118144
:101CF0002281338122273327BA0155274427402BDD
:101D0000512B622B732B4083518362837383C6CF25
:101D10006696EEADFFAD6697EA0FFB1FEE0FFF1F55
:101D2000EC7FF3702C96EEACFFAC2C97EE0DFF1D04
:101D3000008111812281338100271127E0CFC30167
:101D4000837099276A01F12CE12C00E010E09801E2
:101D5000CDAEDEAEEFAE2196FFAE219722960FAF4D
:101D6000229723961FAF239724962FAF249725966B
:101D70003FAF2597FD01009761F5EE0FFF1FE87F4C
:101D8000F770E40DF51DD0802696DFAE2697C18052
:101D9000D280E380F48015812DAD3EAD40E050E06F
:101DA00060E070E080E090E000E30E946A1A26960E
:101DB0000FAD2697202B20833C2931834D29428368
:101DC0005E295383F62AF482172B15838683978323
:101DD00065CF8130910561F53196EE0FFF1FE87FE9
:101DE000F770E40DF51D108126961FAF2697C18070
:101DF000D280E380F68017812DAD3EAD40E050E00B
:101E000060E070E080E090E000E20E946A1A2696AE
:101E10000FAD2697202B20833C2931834D29428307
:101E2000E52AE382648375838F298683912BCFCF44
:101E3000029749F53296EE0FFF1FE87FF770E40D29
:101E4000F51D108126961FAF2697C180D480E580AE
:101E5000F68017812DAD3EAD40E050E060E070E0CF
:101E600080E090E000E10E946A1A26960FAD269766
:101E7000202B20833C29318342835383D62AD4826A
:101E8000E72AE582D1CF3396EE0FFF1FE87FF77088
:101E9000E40DF51D1DAD10832EAD2183FFCEC801CD
:101EA000019763E070E0803D974068F52091250838
:101EB000C301800F911F62E070E02817190618F126
:101EC000C80123E0969587952A95E1F79C012D5F3F
:101ED0003F4F3093390520933805980127703327F9
:101EE000232B29F00496909339058093380580912F
:101EF000380590913905EAE3F5E0813031E0930748
:101F000028F064E070E081E090E0C3CB31969F015F
:101F10002A5335402817390710F41082F7CF91E083
:101F200090933B05835080933C05A0902308B0908C
:101F3000240870E060E020E0C12CD12C7601C3942D
:101F400016012701022E04C0220C331C441C551C10
:101F50000A94D2F7FB0133E0F695E7953A95E1F75D
:101F6000E35CFA4F3081A301A3E056954795AA950B
:101F7000E1F74F7155274A0D5B1DDA014C9150E096
:101F8000B62DB77002C055954795BA95E2F7822DE8
:101F900040FF0FC0832B80832F5F283009F420E09F
:101FA000EFEF6E1A7E0A6F5F7F4F0617170741F635
:101FB000CECB809538233083EFCFC801019763E003
:101FC00070E0803D974068F520912B08C301800F99
:101FD000911F62E070E02817190618F1C80123E08C
:101FE000969587952A95E1F79C012D5F3F4F309399
:101FF000390520933805980127703327232B29F0C2
:102000000496909339058093380580913805909116
:102010003905EAE3F5E0813021E0920728F064E039
:1020200070E082E090E035CB31969F012A53354035
:102030002817390710F41082F7CF92E090933B05F0
:10204000835080933C056091290870912A0850E0E4
:1020500040E0B12CC12CD12C7601C394160127018C
:102060000B2C04C0220C331C441C551C0A94D2F7C0
:10207000FA01A3E0F695E795AA95E1F7E35CFA4F3C
:10208000A0809301B3E036952795BA95E1F7260F26
:10209000372F311DD9012C9130E0B62DB77002C019
:1020A00035952795BA95E2F7822D20FF10C08A2931
:1020B0008083B394E8E0BE1201C0B12CFFEF6F1A29
:1020C0007F0A4F5F5F4F0417150741F640CB80959D
:1020D000A822A082EECFC801019763E070E08D379F
:1020E000910550F420912808C301800F911F2817F3
:1020F000190628F462E070E084E090E0CACAC801E2
:10210000880F991F03969093390580933805EAE369
:10211000F5E031969F012A5335402817390710F40E
:102120001082F7CF94E090933B05835080933C0559
:10213000660C771CE0912608F0912708E60DF71D44
:102140000150110922E0A20EB11C0F3F100709F443
:10215000FECA808191813296D50111969C93119788
:1021600012968C93EDCF0115BFEF1B0729F063E0AA
:1021700070E00115110549F4809125088150990BF3
:102180008615970528F462E070E085E090E081CA4A
:1021900041E001151F4F09F040E060E0C3010E94DB
:1021A0005908D5CA90914005980173E03695279556
:1021B0007A95E1F7822FA80147705527452B11F03A
:1021C00081E0820F980121503109203B374010F403
:1021D000981729F063E070E08FE090E05ACA2091F0
:1021E0002508C301800F911F2817190618F462E013
:1021F00070E0F2CF86E090E0909339058093380547
:102200008FE080933B0570923C0560923D051093F2
:102210003E0500933F05F12CE12CD12CF70153E052
:10222000F695E7955A95E1F7E65CFA4F478150E05D
:102230000D2C02C0559547950A94E2F7417060E075
:10224000C701860D971D0E945908D39468E0C62ED9
:10225000DC1001C0D12C2FEFE21AF20AE016F106D1
:10226000E9F60091380510913905780122E0E20E77
:10227000F11CF0923905E09238050E941F08F80120
:10228000E65CFA4F9083818380913E0687FD09C00A
:1022900061E00E94DA0180913A0690913B060E942B
:1022A000660280913F0690914006DC01ED91FC9121
:1022B0000280F381E02DA7016AE375E01995809112
:1022C0003F0690914006DC01ED91FC910680F7817C
:1022D000E02D199580913A0690913B060E94660286
:1022E00080913E0687FDA3C860E00E94DA019FC886
:1022F000C0903F05D0904005DC24CD24DC24811122
:102300005EC00E944104009709F459C0E816F9061E
:1023100008F055C0C816D90608F051C0CE14DF0425
:1023200008F44DC0570145E4842E45E0942E10E09A
:1023300000E0B50180E00E940C079C01200F311FD6
:10234000255F3F4F2130314098F4892B59F0A4018B
:10235000B50180E00E941E07009721F0880E991EAB
:10236000080F191FC50101967501C816D90628F571
:10237000C8010B96909339058093380583E48093C8
:102380003B058EE780933C05F0923D05E0923E05CB
:10239000809136089091370820913808309139089B
:1023A00030933F052093400590934105809342056B
:1023B0001093430500934405CAC95C01BACF83E07A
:1023C00090E0909339058093380583E480933B0532
:1023D00081E878C055E16516710408F06AC0C30150
:1023E000880F991F860D971DAEE3B5E08E010F5F34
:1023F0001F4FF8019F01201B310B2817390718F4D4
:102400002D912193F7CFB12CA12C512CD12CC12C83
:102410002BE0E22EF12C6A147B0441F1D8014C90A0
:1024200011968C90119712968C91982C882EB4014D
:10243000842D0E940C07009791F08E0D9F1D813016
:102440009140A0F4A701465C5A4FB401842D0E942C
:102450001E07009721F0E80EF91EC80ED91E0D5F69
:102460001F4F5A2CF50131965F01D5CFF0923905F7
:10247000E092380584E480933B058EE780933C0529
:1024800010923D0550923E05809136089091370894
:10249000209138083091390830933F05209340054A
:1024A0009093410580934205D0924305C092440524
:1024B0004EC983E090E09093390580933805D0921F
:1024C0003B0582E880933C0542C90091400510918C
:1024D0004105102701271027093F110548F083E027
:1024E00090E09093390580933805D0923B0570CFEA
:1024F000B7010E94DD06282FCB01009791F125310D
:1025000080F530E049E0429FF001439FF00D112437
:10251000E25FFB4FCC2001F14085442321F14017BD
:10252000110609F000F549E0429FF001439FF00DCC
:102530001124E25FFB4F0190F081E02D62E475E031
:1025400019958EE723E030E0309339052093380564
:1025500092E490933B05B6CF0280F381E02D19956C
:10256000F0CF81E8EFCF82E8EDCFE65CFA4F2DEABD
:102570002083FC01E65CFA4F2EED24830596AAC861
:102580000F931F93CF93DF938B01FC01FE5F20819C
:10259000222351F19C012F5F3D4F22503E4FD90124
:1025A0002D913C912F37310510F02EE730E0622F4E
:1025B000E80128834081442311F08F5F9D4FFC0187
:1025C000D80180E0861790F49081329611969C9302
:1025D0001197AF0142505109EA01998112969C93DB
:1025E00012978F5F1296EECF9C01D7CF220F331F29
:1025F0002F5F3F4F2D3F310579F04DEF50E0421BEB
:10260000530B70E060E0C801820F931FDF91CF9100
:102610001F910F910C94E31BDF91CF911F910F91AC
:1026200008950C94511B0C94511B0F931F93CF933F
:10263000DF93CDB7DEB7C150D1400FB6F894DEBFFF
:102640000FBECDBF8C01FB0140814F3708F04EE734
:1026500050E0C050DF4F59834883C050D1406F5F76
:102660007F4FCE0101960E94DA1BC050DF4FE881F8
:10267000F981C050D14081E090E08C0F9D1FE80FA0
:10268000F91F108281E091E0FE013196D80101909E
:102690000D920197E1F7CF5FDE4F0FB6F894DEBFE2
:1026A0000FBECDBFDF91CF911F910F9108950F9372
:1026B0001F93CF93DF93CDB7DEB7C150D1400FB694
:1026C000F894DEBF0FBECDBF8C01FB0140814F37B8
:1026D00008F04EE750E0C050DF4F59834883C050A8
:1026E000D1406F5F7F4FCE0101960E94DA1BC05030
:1026F000DF4FE881F981C050D14081E090E08C0F3C
:102700009D1FE80FF91F1082F801EF5FFE4F81E077
:102710008083D801AE5FBE4F81E091E0FE0131962B
:1027200001900D920197E1F7CF5FDE4F0FB6F8945D
:10273000DEBF0FBECDBFDF91CF911F910F910895E6
:10274000FF920F931F93CF93DF938B01FC01EF5FF9
:10275000FE4F2081222319F19C012E5F3E4F215014
:102760003F4FD901CD91DC91CF37D10510F0CEE7A5
:10277000D0E0FC2ED801CC93C11113C04EE750E03D
:102780004C1B5D0BCE01019670E060E0800F911F45
:10279000DF91CF911F910F91FF900C94E31B9C014F
:1027A000DECF2081BC01222311F06E5F7E4FAE018F
:1027B000C80101960E94DA1B8EE7F812DFCFDF9185
:1027C000CF911F910F91FF9008951F920F920FB616
:1027D0000F9211242F933F938F939F93AF93BF93A7
:1027E0008091480890914908A0914A08B0914B08FF
:1027F0003091470823E0230F2D3758F50196A11D8E
:10280000B11D209347088093480890934908A093EE
:102810004A08B0934B0880914C0890914D08A091C4
:102820004E08B0914F080196A11DB11D80934C0830
:1028300090934D08A0934E08B0934F08BF91AF916D
:102840009F918F913F912F910F900FBE0F901F90EE
:10285000189526E8230F0296A11DB11DD2CF1F9215
:102860000F920FB60F9211240BB60F922F933F9336
:102870004F935F936F937F938F939F93AF93BF9388
:10288000EF93FF9380E598E00E940F03FF91EF9193
:10289000BF91AF919F918F917F916F915F914F9178
:1028A0003F912F910F900BBE0F900FBE0F901F9076
:1028B00018951F920F920FB60F9211240BB60F921C
:1028C0002F938F939F93EF93FF93E0916008F09184
:1028D00061088081E0916608F091670882FD1DC063
:1028E0009081809169088F5F8F7320916A088217A9
:1028F00041F0E0916908F0E0E05BF74F958F80933D
:102900006908FF91EF919F918F912F910F900BBECE
:102910000F900FBE0F901F9018958081F2CFE0E5C9
:10292000F8E01382128288EE93E0A0E0B0E08483A6
:102930009583A683B7838FEC94E09183808385ECA5
:1029400090E09587848784EC90E09787868780EC79
:1029500090E0918B808B81EC90E0938B828B82EC6A
:1029600090E0958B848B86EC90E0978B868B118E14
:10297000128E138E148EEDEEF8E085EF94E09183C5
:10298000808381EE94E09383828314821582168281
:10299000178210861186128613861486158616866F
:1029A0001786108A118A128A138A148A158A168A3F
:1029B000178A108E81E0818F128E138E2FEE38E0F1
:1029C00037A726A728E235E0358F248F168E9DE2A3
:1029D000978F91E390A381A312A213A214A215A230
:1029E00081E090E0A0E0B0E086A397A3A0A7B1A704
:1029F0008BE199E093A782A781E090E095A784A757
:102A00002EE235E031AB20AB23E335E033AB22AB34
:102A100029E039E035AB24AB97AB86AB0895CF9373
:102A2000DF93CDB7DEB764970FB6F894DEBF0FBE65
:102A3000CDBF789484B5826084BD84B5816084BD47
:102A400085B5826085BD85B5816085BD80916E004C
:102A5000816080936E00109281008091810082607D
:102A600080938100809181008160809381008091BA
:102A700080008160809380008091B10084608093A9
:102A8000B1008091B00081608093B000809191008E
:102A90008260809391008091910081608093910089
:102AA000809190008160809390008091A10082606D
:102AB0008093A1008091A10081608093A10080910A
:102AC000A00081608093A0008091210182608093AA
:102AD0002101809121018160809321018091200159
:102AE00081608093200180917A00846080937A00D5
:102AF00080917A00826080937A0080917A00816070
:102B000080937A0080917A00806880937A00109296
:102B1000C10020912309309124093A8B298B80919F
:102B20002109909122099C8B8B8B9A8389831A8629
:102B30001986312C212C712C812C912C1B821C820A
:102B4000612C512C412CA989BA89E985FA85AE17E7
:102B5000BF0709F490C0A981BA8150968D919C91CC
:102B60005197280E391E1296DC9012971396EC900E
:102B700013971496FC90149715960C91159716962A
:102B80001C9116971796BC91E981FA81C084B18493
:102B90002D2D3E2D4F2D502F612F7B2F8C2D9B2DBA
:102BA000A0E00E94A91A09F054F4D12C6DE2E62E9F
:102BB00071E3F72E01E010E0B0E0C12CB12CDD8212
:102BC000EF82FB860C871D87BE87CF86B88A272DAC
:102BD000382D492D5B816C81762D852D942DA0E0BB
:102BE0000E94A91A51F1AD80BF80CB84DC84ED84B2
:102BF000FE840F851889272D382D492D5B816C8126
:102C0000762D852D942D0E940B1AD22EE32EF42EB4
:102C1000052F162FB72FF82FE92F7A2C8B2C9C2CF1
:102C20002C852B833D853C836E845F8448882D2DC5
:102C30003E2DA0E00E94A91AA9F489859A850196E3
:102C40009A878987A981BA815296BA83A9837D80A0
:102C50008F809B84BC85BB83ED85EC836E845F8411
:102C6000488871CFDD82EF82FB860C871D87BE8787
:102C7000FF87E88BB8CF272D382D492D5B816C81DC
:102C8000762D852D942DA0E00E94A91A59F4712C5F
:102C90004DE2842E51E3952EF1E0FB831C82612CE2
:102CA000512C412C709200028092010290920202FB
:102CB0002B81209303023C81309304026092050231
:102CC0005092060240920702211480E4380608F070
:102CD000A3C0C101880F991F009709F4A0C00E94EA
:102CE000B51A9E838D839093350880933408211400
:102CF00090E2390608F096C0C101880F991F880F2D
:102D0000991F009709F491C00E94B51A98878F8384
:102D100090933B0880933A0830923D0820923C08FB
:102D20001A821982312C212CA985BA85E981FA8170
:102D3000AE17BF0709F489C0AB89BC891296DC9035
:102D400012971396EC9013971496FC90149715967F
:102D50000C91159716961C9116971796BC91EB89B6
:102D6000FC89C084B1842D2D3E2D4F2D502F612F15
:102D70007B2F8C2D9B2DA0E00E94A91A09F044F412
:102D8000272D382D492D5B816C81762D852D942D35
:102D9000A72CB82CC92CDB80EC80F62C052D142D2B
:102DA0000E940D1AB22EA32E742F652FAB89BC89F9
:102DB00050964D915C918A01000F111F7101EE0C2C
:102DC000FF1C6101CC0CDD1CCC0CDD1C90E080E014
:102DD0000817190769F1AB89BC891E96ED91FC9122
:102DE000E80FF91F20813181F701E80FF91FAD814C
:102DF000BE81EA0FFB1F31832083FC01EE0FFF1F12
:102E0000EC0DFD1D2F813885E20FF31FB082A182EA
:102E1000728363830296DCCF8FEF9FEF60CF81E0F8
:102E200090E05DCF8FEF9FEF6FCF81E090E06CCFB0
:102E3000240E351E89819A8101969A838983AB89F4
:102E4000BC895296BC8BAB8B6FCFE0916008F09140
:102E5000610882E08083E0915C08F0915D08108257
:102E6000E0915E08F0915F0880E18083109268082D
:102E7000E0916408F091650886E08083E091620843
:102E8000F0916308808180618083E0916208F09115
:102E90006308808188608083E0916208F091630814
:102EA000808180688083E0916208F091630880816E
:102EB0008F7D808380E598E09093400680933F0665
:102EC0008FEF80933E068EEE92E090933D068093C6
:102ED0003C0681E49AE090933B0680933A0681E0B9
:102EE0008093190884E380931C0884E180931F0871
:102EF0008093220888E38093250890E29093280825
:102F000080932B0887E090E00E94B51A90932408E4
:102F100080932308009709F451C017E0FC01212F8A
:102F200011922A95E9F788E690E00E94B51A9093ED
:102F30001B0880931A08009709F440C028E6DC01BA
:102F40001D922A95E9F780E590E00E94B51A9093CA
:102F50001E0880931D08009789F120E5FC0111925D
:102F60002A95E9F780EA90E00E94B51A909321082B
:102F700080932008009711F120EADC011D922A9528
:102F8000E9F787E090E00E94B51A90932A088093B1
:102F90002908009799F0FC0111921A95E9F780E44D
:102FA00090E00E94B51A9093270880932608009716
:102FB00029F020E4DC011D922A95E9F710E000E0F9
:102FC000C801880F991FFC01E755F84F7F018081E8
:102FD0009181892B49F481E090E00E94B51AD701D4
:102FE0008D939C93FC0110820F5F1F4F08331105D6
:102FF00039F700911A0810911B08E9E6F7E090E014
:1030000080E021913191232B39F4DF01129798014F
:10301000280F391F2D933C9302968034910589F730
:10302000D12CC12CC601880F991F9C012750394F04
:103030007901D9018D919C91892B49F481E090E02F
:103040000E94B51AF70191838083DC011C92BFEFC7
:10305000CB1ADB0AE8E3CE16D10421F7209126082B
:1030600030912708E9EBF6E090E080E04191519142
:10307000452B39F4DF011297A901480F591F4D93D1
:103080005C9302968034910589F7E1E9F6E090E0DF
:1030900080E0005C1F4F21913191232B39F4DF0137
:1030A00012979801280F391F2D933C93029688326E
:1030B000910589F740911D0850911E08E9E6F6E058
:1030C00090E080E021913191232B59F4DF01129798
:1030D0009C01220F331F220F331F240F351F2D9306
:1030E0003C9301968431910569F7409120085091F5
:1030F0002108E1E4F6E090E080E021913191232B7A
:1031000061F4DF0112979C0163E0220F331F6A957F
:10311000E1F7240F351F2D933C93019684319105DF
:1031200061F748EEA42E53E0B52EC12CD12CE12C32
:10313000F12C00E010E0272D382D492D5B816C81AA
:10314000762D852D942D0E940D1A20933F083093E3
:10315000400840934108509342080E9471026093D6
:103160004308709344088093450890934608992437
:1031700093940E9471020091430810914408209199
:10318000450830914608601B710B820B930B009130
:103190003F08109140082091410830914208601783
:1031A00071078207930708F4C5C01A8219828091BB
:1031B0003C0890913D0829813A8128173907D8F5B4
:1031C000E0913A08F0913B08C901880F991F880FD8
:1031D000991FE80FF91F2081318142815381211508
:1031E00031054105510571F060913608709137083D
:1031F00080913808909139080E94E119672B682B5B
:10320000692B99F4E0913408F091350889819A810D
:10321000880F991FE80FF91F80819181DC01ED91E2
:10322000FC910480F581E02D1995E981FA813196B0
:10323000FA83E983BCCF8091360890913708A0913A
:103240003808B09139080196A11DB11D8093360848
:1032500090933708A0933808B093390820912C0830
:1032600030912D0840912E0850912F086091300820
:10327000709131088091320890913308A09000023B
:10328000B0900102C0900202D0900302E0900402CC
:10329000F090050200910602109107020E94A01A08
:1032A00020932C0830932D0840932E0850932F081C
:1032B00060933008709331088093320890933308FC
:1032C0000E94850880913E08811118C090923E08A6
:1032D0000E94710200913F0810914008209141081E
:1032E00030914208601B710B820B930B6093430873
:1032F0007093440880934508909346088091430852
:1033000090914408A0914508B091460840913F082B
:10331000509140086091410870914208840F951FB8
:10332000A61FB71F8093430890934408A0934508B5
:10333000B09346080E94710200914308109144081E
:103340002091450830914608601B710B820B930B4E
:10335000603177428105910510F00E9485088895BB
:103360000E949E0306CF0E94B81908F481E00895D8
:10337000990F0008550FAA0BE0E8FEEF1616170686
:10338000E807F907C0F012161306E407F50798F0EE
:10339000621B730B840B950B39F40A2661F0232B07
:1033A000242B252B21F408950A2609F4A140A69583
:1033B0008FEF811D811D08950E94B81908F48FEFC9
:1033C0000895A1E21A2EAA1BBB1BFD010DC0AA1F66
:1033D000BB1FEE1FFF1FA217B307E407F50720F07E
:1033E000A21BB30BE40BF50B661F771F881F991FF9
:1033F0001A9469F760957095809590959B01AC0142
:10340000BD01CF010895EE0FFF1F881F8BBF0790EE
:10341000F691E02D1994689401C0E8948F929F92E0
:10342000CF93DF930E94191ADF91CF919F908F90D5
:10343000089588249924F401E401B0E49F93AA2715
:103440009A158B049C04ED05FE05CF05D007A10756
:1034500098F4AD2FDC2FCF2FFE2FE92D982C892E3D
:10346000982F872F762F652F542F432F322F222707
:10347000B85031F7BF9127C01B2EBF91BB27220F39
:10348000331F441F551F661F771F881F991F881CF5
:10349000991CEE1FFF1FCC1FDD1FAA1FBB1F8A1424
:1034A0009B04EC05FD05CE05DF05A007B10748F03C
:1034B0008A189B08EC09FD09CE09DF09A00BB10BA6
:1034C00021601A94E1F62EF49401AF01BE01CD0102
:1034D000000C0895002E083090F0982F872F762F3B
:1034E000652F542F432F322F22270850F4CF220F5D
:1034F000331F441F551F661F771F881F991F0A958A
:10350000B2F7002D089597FD1094002E083098F022
:103510000850232F342F452F562F672F782F892FB0
:10352000912DF4CF15949795879577956795579535
:103530004795379527950A95AAF71124002D0895E8
:103540002A0D3B1D4C1D5D1D6E1D7F1D801F911F93
:1035500008950024A7FD00942A1730054005500562
:10356000600570058005900508950F931F93CF9314
:10357000DF938230910510F482E090E0E09127091A
:10358000F091280930E020E0B0E0A0E0309799F415
:103590002115310509F44AC0281B390B24303105A7
:1035A000D8F58A819B816115710589F1FB019383AF
:1035B0008283FE0111C0408151810281138148172D
:1035C0005907E0F04817590799F4109761F01296DF
:1035D0000C93129713961C933296CF01DF91CF91E3
:1035E0001F910F9108950093270910932809F4CF94
:1035F0002115310551F04217530738F0A901DB01BD
:103600009A01BD01DF01F801C1CFEF01F9CF90931D
:10361000280980932709CDCFFE01E20FF31F819384
:1036200091932250310939832883D7CF20912509DE
:1036300030912609232B41F420910A0230910B028C
:103640003093260920932509209108023091090220
:103650002115310541F42DB73EB740910C02509130
:103660000D02241B350BE0912509F0912609E21784
:10367000F307A0F42E1B3F0B2817390778F0AC0195
:103680004E5F5F4F2417350748F04E0F5F1F509372
:10369000260940932509819391939FCFF0E0E0E0C4
:1036A0009CCFCF93DF930097E9F0FC013297138210
:1036B0001282A0912709B0912809ED0130E020E0A5
:1036C0001097A1F420813181820F931F2091250949
:1036D000309126092817390709F061C0F0932609AF
:1036E000E0932509DF91CF910895EA01CE17DF0716
:1036F000E8F54A815B819E0141155105B1F7E90169
:10370000FB83EA8349915991C40FD51FEC17FD073C
:1037100061F4808191810296840F951FE90199835C
:103720008883828193819B838A83F0E0E0E0129614
:103730008D919C9113970097B9F52D913C9111971C
:10374000CD010296820F931F209125093091260901
:103750002817390739F6309751F510922809109239
:103760002709B0932609A0932509BCCFD383C28330
:1037700040815181840F951FC817D90761F44E5FAE
:103780005F4F88819981480F591F518340838A81F7
:103790009B81938382832115310509F0B0CFF0938B
:1037A0002809E09327099ECFFD01DC01C0CF1382D9
:1037B0001282D7CFFB01DC0102C001900D92415073
:1037C0005040D8F70895DC0101C06D93415050403E
:1037D000E0F70895F894FFCF002D310100000000BC
:1037E00000002909800000C0C101C30302C2C6064F
:1037F00007C705C5C404CC0C0DCD0FCFCE0E0ACA29
:10380000CB0BC90908C8D81819D91BDBDA1A1EDE78
:10381000DF1FDD1D1CDC14D4D515D71716D6D21228
:1038200013D311D1D010F03031F133F3F23236F638
:10383000F737F53534F43CFCFD3DFF3F3EFEFA3AE8
:103840003BFB39F9F83828E8E929EB2B2AEAEE2E78
:103850002FEF2DEDEC2CE42425E527E7E62622E2E8
:10386000E323E12120E0A06061A163A3A26266A638
:10387000A767A56564A46CACAD6DAF6F6EAEAA6AA8
:103880006BAB69A9A86878B8B979BB7B7ABABE7EF8
:103890007FBF7DBDBC7CB47475B577B7B67672B2A8
:1038A000B373B17170B05090915193535292965638
:1038B0005797559594549C5C5D9D5F9F9E5E5A9A68
:1038C0009B5B99595898884849894B8B8A4A4E8EF8
:1038D0008F4F8D4D4C8C4484854587474686824268
:1038E00043834181804000C1814001C0804101C0CB
:1038F000804100C1814001C0804100C1814000C1C0
:10390000814001C0804101C0804100C1814000C1AF
:10391000814001C0804100C1814001C0804101C09F
:10392000804100C1814001C0804100C1814000C18F
:10393000814001C0804100C1814001C0804101C07F
:10394000804100C1814000C1814001C0804101C06F
:10395000804100C1814001C0804100C1814000C15F
:10396000814001C0804101C0804100C1814000C14F
:10397000814001C0804100C1814001C0804101C03F
:10398000804100C1814000C1814001C0804101C02F
:10399000804100C1814001C0804100C1814000C11F
:1039A000814001C0804100C1814001C0804101C00F
:1039B000804100C1814001C0804100C1814000C1FF
:1039C000814001C0804101C0804100C1814000C1EF
:1039D000814001C0804100C1814001C0804101C0DF
:1039E000804100C181401308A706D306060801CB19
:1039F00006C806BE06B50601AD06AA069D069406D3
:103A000001890660067C0671060266066306530697
:103A100048060233067F042006110604FC05F9055A
:103A2000E605D70504AD052E0581055E05083405BC
:103A300031050205DF0408CA04C704B4049A04046B
:103A4000850482046C04520404AD06AA069D069403
:103A50000601660663065306480602FC05F905E6FC
:103A600005D70504340531050205DF0408AD052E30
:103A70000581055E0508AD052E0581055E0508ADCD
:103A8000052E0581055E0508AD052E0581055E053F
:103A90000857130108A01315137F45074107C012EB
:103AA000A407FD0000000031039B02C8027E03F959
:103AB00002D702EB0200000000CF031113D0033A3B
:103AC000043704360436042B04000000003D0413C0
:103AD000133E0499029602434F4E46494730003543
:103AE000326562643435383263323765323836666F
:103AF00036653639663830343439303063663900EB
:103B00005441534B30005245533000504C43000059
:020000040003F7
:10E000000D9489F10D94B2F10D94B2F10D94B2F129
:10E010000D94B2F10D94B2F10D94B2F10D94B2F1F0
:10E020000D94B2F10D94B2F10D94B2F10D94B2F1E0
:10E030000D94B2F10D94B2F10D94B2F10D94B2F1D0
:10E040000D94B2F10D94B2F10D94B2F10D94B2F1C0
:10E050000D94B2F10D94B2F10D94B2F10D94B2F1B0
:10E060000D94B2F10D94B2F10D94B2F10D94B2F1A0
:10E070000D94B2F10D94B2F10D94B2F10D94B2F190
:10E080000D94B2F10D94B2F10D94B2F10D94B2F180
:10E090000D94B2F10D94B2F10D94B2F10D94B2F170
:10E0A0000D94B2F10D94B2F10D94B2F10D94B2F160
:10E0B0000D94B2F10D94B2F10D94B2F10D94B2F150
:10E0C0000D94B2F10D94B2F10D94B2F10D94B2F140
:10E0D0000D94B2F10D94B2F10D94B2F10D94B2F130
:10E0E0000D94B2F141546D656761323536300041AF
:10E0F000726475696E6F206578706C6F72657220DE
:10E1000073746B3530305632206279204D4C530099
:10E11000426F6F746C6F616465723E004875683F52
:10E1200000436F6D70696C6564206F6E203D200048
:10E130004350552054797065202020203D20005FF9
:10E140005F4156525F415243485F5F3D2000415658
:10E1500052204C696243205665723D20004743437C
:10E160002056657273696F6E203D20004350552024
:10E1700049442020202020203D20004C6F7720663D
:10E18000757365202020203D20004869676820665F
:10E190007573652020203D200045787420667573D6
:10E1A00065202020203D20004C6F636B2066757336
:10E1B000652020203D20004D617220203720323024
:10E1C000313300312E362E3800342E332E350056A2
:10E1D00023202020414444522020206F7020636F70
:10E1E00064652020202020696E73747275637469E1
:10E1F0006F6E2061646472202020496E74657272B3
:10E20000757074006E6F20766563746F7200726A49
:10E210006D702020006A6D70200057686174207056
:10E220006F72743A00506F7274206E6F7420737541
:10E2300070706F72746564004D7573742062652030
:10E2400061206C6574746572002000577269747483
:10E25000696E672045450052656164696E672045B7
:10E26000450045452065727220636E743D00504F35
:10E27000525400303D5A65726F2061646472003FF1
:10E280003D43505520737461747300403D454550C3
:10E29000524F4D207465737400423D426C696E6B41
:10E2A000204C454400453D44756D70204545505215
:10E2B0004F4D00463D44756D7020464C415348001B
:10E2C000483D48656C70004C3D4C69737420492F83
:10E2D0004F20506F72747300513D51756974005234
:10E2E0003D44756D702052414D00563D73686F7707
:10E2F00020696E7465727275707420566563746FF0
:10E30000727300593D506F727420626C696E6B00BD
:10E310002A0011241FBECFEFD1E2DEBFCDBF01E046
:10E320000CBF12E0A0E0B2E0EEE1FDEF03E00BBFB6
:10E3300002C007900D92A030B107D9F712E0A0E01B
:10E34000B2E001C01D92AE30B107E1F70F9460F367
:10E350000D948DFE01E20EBF0FEF0DBF11241FBE05
:10E360000D9460F30D9400F020E030E040ED57E0B4
:10E3700005C0FA013197F1F72F5F3F4F2817390792
:10E38000C0F308959C01260F311DC901A0E0B0E043
:10E390002F5F3F4FABBFFC018791882361F08093D3
:10E3A000C6008091C00086FFFCCF8091C0008064D1
:10E3B0008093C000EACF08958DE08093C6008091DD
:10E3C000C00086FFFCCF8091C00080648093C000B5
:10E3D0008AE08093C6008091C00086FFFCCF8091C8
:10E3E000C00080648093C00008950F94C2F10F9420
:10E3F000DCF10895FC019081992359F09093C600B7
:10E400008091C00086FFFCCF8091C0008064809323
:10E41000C0003196992379F70895282F982F929567
:10E420009F70892F805D8A3308F0895F8093C600D2
:10E430008091C00086FFFCCF8091C00080648093F3
:10E44000C000822F8F70982F905D9A3308F0995FEB
:10E450009093C6008091C00086FFFCCF8091C000E1
:10E4600080648093C00008959C01FB01853691056E
:10E470001CF46330710594F0C90164E670E00F94F8
:10E480002EFE605D7F4F6093C6008091C00086FFC6
:10E49000FCCF8091C00080648093C0002B30310598
:10E4A00014F43297B4F0C90164E670E00F942EFEC4
:10E4B0006AE070E00F942EFE605D7F4F6093C600AF
:10E4C0008091C00086FFFCCF8091C0008064809363
:10E4D000C000C9016AE070E00F942EFEC0968093E0
:10E4E000C6008091C00086FFFCCF8091C000806490
:10E4F0008093C00008951F93182F8EE692EE60E07F
:10E500000F94C2F11093C6008091C00086FFFCCF2B
:10E510008091C00080648093C0000F94DCF11F9153
:10E5200008952F923F924F925F926F927F928F92B7
:10E530009F92AF92BF92CF92DF92EF92FF920F9392
:10E540001F93DF93CF93CDB7DEB762970FB6F894E2
:10E55000DEBF0FBECDBF382E622ECA01DB015C01CB
:10E560006D01772420E2222E2E010894411C511CBB
:10E570008BC081E0A81680E0B80681E0C80680E084
:10E58000D80628F0C601AA27BB270F940DF2BB2797
:10E59000AD2D9C2D8B2D0F940DF28A2D0F940DF225
:10E5A0002092C6008091C00086FFFCCF8091C00001
:10E5B00080648093C0009DE29093C6008091C0006B
:10E5C00086FFFCCF8091C00080648093C0002092C1
:10E5D000C6008091C00086FFFCCF8091C00080649F
:10E5E0008093C00019828601750188249924A1E0D6
:10E5F0003A1651F03A1620F0B2E03B1661F409C029
:10E600000BBFF701779007C0C7010F9477FE782EF4
:10E6100002C0F7017080872D0F940DF22092C60082
:10E620008091C00086FFFCCF8091C0008064809301
:10E63000C000872D8052F401EF70F0708F3520F408
:10E64000E40DF51D708204C0E40DF51D8EE280839B
:10E650000894E11CF11C011D111D0894811C911CE2
:10E6600090E18916910409F0C2CF80E190E0A0E02A
:10E67000B0E0A80EB91ECA1EDB1E198AC2010F9493
:10E68000FAF10F94DCF16A94662009F072CF629679
:10E690000FB6F894DEBF0FBECDBFCF91DF911F91B3
:10E6A0000F91FF90EF90DF90CF90BF90AF909F9031
:10E6B0008F907F906F905F904F903F902F90089534
:10E6C0002F923F924F925F926F927F928F929F9282
:10E6D000AF92BF92CF92DF92EF92FF920F931F9370
:10E6E000DF93CF93CDB7DEB7CD53D1400FB6F894BB
:10E6F000DEBF0FBECDBF01E20EBF0FEF0DBF94B75F
:10E70000F894A89514BE80916000886180936000A1
:10E7100010926000789493FF05C0E0910002F091A0
:10E7200001021995279A2F9A8091C00082608093E8
:10E73000C00080E18093C40088E18093C1000000A4
:10E74000EE24FF24870144E0A42EB12CCC24DD2448
:10E7500024C0C5010197F1F70894E11CF11C011DCB
:10E76000111D21E2E2162EE4F20620E0020720E06D
:10E77000120718F031E0C32ED12CC801B70127ECE5
:10E780003BE140E050E00F9441FE611571058105C9
:10E79000910519F485B1805885B98091C00087FD35
:10E7A00003C0C114D104A9F2A6014F5F5F4FC25E3E
:10E7B000DE4F59834883CE51D140C25EDE4F8881FF
:10E7C0009981CE51D140019711F00D9410FEC05D9A
:10E7D000DE4F19821882C053D14060E0C15DDE4F28
:10E7E0001882CF52D14088249924C35DDE4F19820C
:10E7F0001882CD52D140C05EDE4F188219821A8233
:10E800001B82C052D140CE5CDE4F188219821A8220
:10E810001B82C253D140EE24FF2487010BBFF701B6
:10E8200007911691C45CDE4F19830883CC53D14005
:10E830000D940BFEC25EDE4F28813981CE51D1404E
:10E840002130310509F52091C600C25EDE4F1982E4
:10E850001882CE51D14022C02F5F3F4F4F4F5F4FA4
:10E86000213082E138078AE7480780E0580780F0C6
:10E87000C45CDE4FE881F981CC53D140EF5FFF4F9C
:10E8800019F0EE27FF27099420E030E040E050E047
:10E890008091C00087FFE0CF2091C600C35DDE4FAE
:10E8A00048815981CD52D1404F5F5F4FC35DDE4FEC
:10E8B00059834883CD52D140213209F063C64A3092
:10E8C000510508F05FC60894811C911C53E0851621
:10E8D000910409F059C600E010E018C081E280936D
:10E8E000C6008091C00086FFFCCF8091C00080648C
:10E8F0008093C0002F5F3F4F2931310579F70F9486
:10E90000DCF10F5F1F4F0530110519F020E030E0FA
:10E91000E5CF10920A0210920B0210920C02109294
:10E920000D02109206021092070210920802109235
:10E930000902109202021092030210920402109235
:10E9400005028FEE90EE60E00F94F5F180E191EE1C
:10E9500060E00F94C2F18091C00087FFFCCF9091DE
:10E96000C600903608F09F759032B8F09093C600BC
:10E970008091C00086FFFCCF8091C00080648093AE
:10E98000C000A0E2A093C6008091C00086FFFCCF2B
:10E990008091C00080648093C000983409F4D7C18E
:10E9A0009934B8F4923409F459C1933458F490333B
:10E9B00019F1903308F4E3C59F33A1F1903409F0C5
:10E9C000DEC5BDC0953409F470C1963409F0D7C5D1
:10E9D00098C1923509F42BC2933538F49C3409F46C
:10E9E000F5C1913509F0CBC518C2963509F445C279
:10E9F000993509F0C4C567C483E792EE62E00F94CD
:10EA0000F5F110920602109207021092080210927D
:10EA1000090210920A0210920B0210920C0210923C
:10EA20000D0213C18FE792EE62E00F94F5F18FEEC5
:10EA300090EE60E00F94F5F181E291EE60E00F94CA
:10EA4000C2F187EB91EE60E00F94F5F180E391EE77
:10EA500060E00F94C2F184EE90EE60E00F94F5F167
:10EA60008FE391EE60E00F94C2F186E090E061E008
:10EA700070E00F9434F20F94DCF18DE591EE60E0DC
:10EA80000F94C2F189EC91EE60E00F94F5F18EE401
:10EA900091EE60E00F94C2F183EC91EE60E00F9490
:10EAA000F5F18CE691EE60E00F94C2F18EE10F94E7
:10EAB0000DF288E90F940DF281E00F940DF20F949E
:10EAC000DCF18BE791EE60E00F94C2F119E0E0E039
:10EAD000F0E010935700E4918E2F0F940DF20F94F5
:10EAE000DCF18AE891EE60E00F94C2F1E3E0F0E03F
:10EAF00010935700E4918E2F0F940DF20F94DCF1D8
:10EB000089E991EE60E00F94C2F1E2E0F0E0109349
:10EB10005700E4918E2F0F940DF20F94DCF188EAE8
:10EB200091EE60E00F94C2F1E1E0F0E01093570045
:10EB30001491812F0F940DF20F94DCF107CF8BE825
:10EB400092EE62E00F94F5F18BE492EE60E00F94A8
:10EB5000F5F10F94DCF100E010E019C0C8016F2D51
:10EB60000F947FFEFF2031F489E492EE60E00F9471
:10EB7000C2F10BC0F092C6008091C00086FFFCCFAE
:10EB80008091C00080648093C0000F5F1F4FC80158
:10EB900081519F41A0E0B0E0ABBFFC01F790BAE229
:10EBA000FB1621F0E2E000301E07C1F60F94DCF105
:10EBB0000F94DCF187E592EE60E00F94F5F10F948D
:10EBC000DCF1CC24DD2400E010E01EC0C8010F946D
:10EBD00077FEF82E882331F489E492EE60E00F94FA
:10EBE000C2F10BC08093C6008091C00086FFFCCFAD
:10EBF0008091C00080648093C000FE1419F00894D6
:10EC0000C11CD11C0F5F1F4FC80181519F41A0E063
:10EC1000B0E0ABBFFC01E790FAE2EF1621F022E092
:10EC20000030120799F60F94DCF10F94DCF182E6C4
:10EC300092EE60E00F94C2F1C60161E070E00F94C3
:10EC400034F20F94DCF10F94DCF110920202109276
:10EC50000302109204021092050278CE89E992EE26
:10EC600062E00F94F5F1279A2F9A16C02F9880E052
:10EC700090E0E0EDF7E03197F1F7019684369105E9
:10EC8000C1F72F9A80E090E0E0EDF7E03197F1F7DF
:10EC9000019684369105C1F78091C00087FFE6CFC9
:10ECA0008091C00087FFFCCF64C485EA92EE62E0E9
:10ECB0000F94F5F140910202509103026091040219
:10ECC0007091050281E020E10F9491F2809102029F
:10ECD00090910302A0910402B091050280509F4FD1
:10ECE000AF4FBF4F8093020290930302A0930402A0
:10ECF000B093050280509041A040B04008F426CE69
:10ED0000A4CF83EB92EE62E00F94F5F140910602FE
:10ED100050910702609108027091090280E020E1A1
:10ED20000F9491F28091060290910702A09108023F
:10ED3000B091090280509F4FAF4FBF4F80930602A2
:10ED400090930702A0930802B0930902FFCD80ECD4
:10ED500092EE62E00F94F5F183E792EE60E00F949B
:10ED6000F5F18FE792EE60E00F94F5F18BE892EE0B
:10ED700060E00F94F5F189E992EE60E00F94F5F10F
:10ED800085EA92EE60E00F94F5F183EB92EE60E09D
:10ED90000F94F5F180EC92EE60E00F94F5F187ECC2
:10EDA00092EE60E00F94F5F188ED92EE60E00F9442
:10EDB000F5F18FED92EE60E00F94F5F18AEE92EEB0
:10EDC00060E00F94F5F183E093EEBDCD87EC92EE19
:10EDD00062E00F94F5F181E40F947BF282E40F94EA
:10EDE0007BF283E40F947BF284E40F947BF285E45E
:10EDF0000F947BF286E40F947BF287E40F947BF20E
:10EE000088E40F947BF28AE40F947BF28BE40F94F6
:10EE10007BF28CE40F947BF299CD88ED92EE62E068
:10EE20000F94F5F1772473948824992409C48FED05
:10EE300092EE62E00F94F5F140910A0250910B02BC
:10EE400060910C0270910D0282E020E10F9491F22A
:10EE500080910A0290910B02A0910C02B0910D02D8
:10EE600080509F4FAF4FBF4F80930A0290930B0289
:10EE7000A0930C02B0930D0269CD8AEE92EE62E08F
:10EE80000F94F5F184EE90EE60E00F94F5F18FECC5
:10EE900091EE60E00F94F5F1662477244301CC5D98
:10EEA000DE4F19821882C452D140D401C301B695F5
:10EEB000A79597958795CA5DDE4F88839983AA8326
:10EEC000BB83C652D140CC5DDE4FA881B981C4520C
:10EED000D1401196CC5DDE4FB983A883C452D14096
:10EEE000CD0162E070E00F9434F2B0E2B093C6005E
:10EEF0008091C00086FFFCCF8091C0008064809329
:10EF0000C000EDE2E093C6008091C00086FFFCCF18
:10EF10008091C00080648093C000F0E2F093C6004E
:10EF20008091C00086FFFCCF8091C00080648093F8
:10EF3000C000CA5DDE4FE880F9800A811B81C6529D
:10EF4000D140BB27A12F902F8F2D0F940DF2CA5DBA
:10EF5000DE4F8881C652D1400F940DF2B0E2FB2EF5
:10EF6000F092C6008091C00086FFFCCF8091C00067
:10EF700080648093C0000DE30093C6008091C000C0
:10EF800086FFFCCF8091C00080648093C00010E2B7
:10EF90001093C6008091C00086FFFCCF8091C00016
:10EFA00080648093C0008BBEF3012791C65DDE4F65
:10EFB0002883CA52D140A22EBB24CC24DD2408943D
:10EFC000611C711C811C911C8BBEF3018791282E42
:10EFD0003324442455240894611C711C811C911C09
:10EFE0008BBEF3013791C55DDE4F3883CB52D140E4
:10EFF0000894611C711C811C911C8BBEF30147910C
:10F00000C45DDE4F4883CC52D140ADEFEA2EAFEF66
:10F01000FA2EAFEF0A2FAFEF1A2F6E0C7F1C801E57
:10F02000911E142D032DF22CEE24EA0CFB1C0C1D5A
:10F030001D1D0F940DF220E22093C6008091C000A8
:10F0400086FFFCCF8091C00080648093C000C65DC5
:10F05000DE4F8881CA52D1400F940DF230E23093D6
:10F06000C6008091C00086FFFCCF8091C000806404
:10F070008093C000C45DDE4F8881CC52D1400F9494
:10F080000DF240E24093C6008091C00086FFFCCFA5
:10F090008091C00080648093C000C55DDE4F888190
:10F0A000CB52D1400F940DF250E25093C6008091A4
:10F0B000C00086FFFCCF8091C00080648093C000B8
:10F0C0008FEFE8168FEFF80680E0080780E018075A
:10F0D00031F484E092EE60E00F94C2F1DFC0D80119
:10F0E000C7018070907CA070B0708050904CA040A0
:10F0F000B040D1F52FEF3FE340E050E0E222F322B1
:10F1000004231523CA5DDE4FA880B980CA80DB8046
:10F11000C652D140AE0CBF1CC01ED11EAA0CBB1CD7
:10F12000CC1CDD1C8EE092EE60E00F94C2F1BB2798
:10F13000A12F902F8F2D0F940DF28E2D0F940DF285
:10F1400030E23093C6008091C00086FFFCCF8091F2
:10F15000C00080648093C0004EE34093C60080915D
:10F16000C00086FFFCCF87C08EE09EEFA0E0B0E03D
:10F17000E822F9220A231B239CE0E91694E9F90608
:10F1800090E0090790E0190709F088C0C45DDE4FE0
:10F19000A881CC52D140EA2EFF2400E010E0102FCD
:10F1A0000F2DFE2CEE24C55DDE4FB881CB52D14031
:10F1B000EB0EF11C011D111DD601C501817090706F
:10F1C000A070B070DC0199278827E80EF91E0A1F8D
:10F1D0001B1F20EF30E040E050E0A222B322C42207
:10F1E000D52241E1AA0CBB1CCC1CDD1C4A95D1F7F1
:10F1F000EA0CFB1C0C1D1D1D81E090E0A0E0B0E0BE
:10F20000282239224A225B2235E1220C331C441C7D
:10F21000551C3A95D1F7E20CF31C041D151D57013E
:10F220006801AA0CBB1CCC1CDD1C85E192EE60E0E1
:10F230000F94C2F1C801AA27BB270F940DF2BB2778
:10F24000A12F902F8F2D0F940DF28E2D0F940DF274
:10F2500090E29093C6008091C00086FFFCCF809121
:10F26000C00080648093C000AEE3A093C60080918C
:10F27000C00086FFFCCF8091C00080648093C000F6
:10F28000C601AA27BB270F940DF2BB27AD2D9C2DDD
:10F290008B2D0F940DF28A2D0F940DF20F94DCF14B
:10F2A000CC5DDE4FE881F981C452D140F99709F471
:10F2B0004DCBF4E0EF2EF12C012D112D6E0C7F1CA7
:10F2C000801E911EF2CD83E093EE62E00F94F5F183
:10F2D0008AE192EE60E00F94C2F18091C00087FF56
:10F2E000FCCF1091C6001F751093C6008091C0001E
:10F2F00086FFFCCF8091C00080648093C0000F9493
:10F30000DCF1812F81548A3108F036C1163409F4BA
:10F3100095C0173490F4133409F44EC0143430F40B
:10F320001134F1F0123409F01DC130C0143409F465
:10F3300059C0153409F016C16BC01A3409F4C4C0A1
:10F340001B3438F4173409F48FC0183409F00AC19B
:10F35000A1C01B3409F4D2C01C3409F003C1E8C0B9
:10F360008FEF81B90DC082B1809582B980E090E0C5
:10F37000E0EDF7E03197F1F70196883C9105C1F790
:10F380008091C00087FFEFCF12B8EFC08FEF84B934
:10F390000DC085B1809585B980E090E0E0EDF7E0A3
:10F3A0003197F1F70196883C9105C1F78091C00033
:10F3B00087FFEFCF15B8D9C08FEF87B90DC088B1DF
:10F3C000809588B980E090E0E0EDF7E03197F1F7C3
:10F3D0000196883C9105C1F78091C00087FFEFCF6F
:10F3E00018B8C3C08FEF8AB90DC08BB180958BB9A7
:10F3F00080E090E0E0EDF7E03197F1F70196883C8E
:10F400009105C1F78091C00087FFEFCF1BB8ADC059
:10F410008FEF8DB90DC08EB180958EB980E090E0F0
:10F42000E0EDF7E03197F1F70196883C9105C1F7DF
:10F430008091C00087FFEFCF1EB897C08FEF80BBD1
:10F440000DC081B3809581BB80E090E0E0EDF7E0F6
:10F450003197F1F70196883C9105C1F78091C00082
:10F4600087FFEFCF11BA81C08FEF83BB0DC084B38C
:10F47000809584BB80E090E0E0EDF7E03197F1F714
:10F480000196883C9105C1F78091C00087FFEFCFBE
:10F4900014BA6BC08FEF809301010FC080910201FD
:10F4A00080958093020180E090E0E0EDF7E03197F5
:10F4B000F1F70196883C9105C1F78091C00087FF64
:10F4C000EDCF1092020151C08FEF809304010FC065
:10F4D0008091050180958093050180E090E0E0ED4A
:10F4E000F7E03197F1F70196883C9105C1F78091DB
:10F4F000C00087FFEDCF1092050137C08FEF8093DA
:10F5000007010FC08091080180958093080180E079
:10F5100090E0E0EDF7E03197F1F70196883C910536
:10F52000C1F78091C00087FFEDCF109208011DC088
:10F530008FEF80930A010FC080910B01809580931B
:10F540000B0180E090E0E0EDF7E03197F1F70196F4
:10F55000883C9105C1F78091C00087FFEDCF1092E4
:10F560000B0103C085E292EEEEC98091C00087FFD7
:10F57000FCCF8091C600EAC988E392EEE4C98CE131
:10F5800091EEE1C988249924933011F1943028F444
:10F59000913089F09230B8F408C0953061F195301F
:10F5A000F0F0963009F048C043C02B3109F042C951
:10F5B00091E06BE13FC96227C15DDE4F2883CF52E6
:10F5C000D14092E037C9B22FA0E0622793E032C960
:10F5D000822F90E0A82BB92B622794E02BC92E3004
:10F5E00009F039C3622795E0C05DDE4F19821882A9
:10F5F000C053D1401FC9E1E0F0E0EC0FFD1FC05D3A
:10F60000DE4F08811981C053D140E00FF11F2083E4
:10F610000F5F1F4FC05DDE4F19830883C053D14079
:10F6200062270A171B0709F005C9D80196E002C92D
:10F63000261709F010C303C0973009F0FBC87724E0
:10F640009981933109F412C19431C8F4963009F4C8
:10F65000D8C0973050F4923009F406C1933009F4C1
:10F660006DC0913009F059C253C0913109F477C08F
:10F67000923108F0BBC0903109F04FC2F5C098310B
:10F6800009F487C0993150F4953109F4EFC09531F0
:10F6900008F4C6C1963109F040C2C2C19A3109F4DA
:10F6A0006CC09A3108F491C09B3109F45BC09D3164
:10F6B00009F033C29D81903359F48F81882311F46E
:10F6C0009EE11CC0813011F091E018C098E916C08D
:10F6D000892F807591F0903539F4E0E0F0E089E011
:10F6E0008093570094910AC0983539F4E3E0F0E034
:10F6F00089E080935700949101C090E01A821B82A8
:10F700008D818C831D829E831F8227E030E009C299
:10F710001A8288E08B8381E48C8386E58D8382E581
:10F720008E8389E48F8383E5888780E589878FE5E9
:10F730008A8782E38B872BE030E0F3C18A818139AD
:10F7400041F0823941F0803911F48FE005C080E04A
:10F7500003C082E001C08AE01A828B8344C0772410
:10F76000739482C08D81882311F48EE12CC0813086
:10F7700011F081E028C088E926C01A82E1E0F0E0BB
:10F7800089E08093570084918B831C8224E030E0D1
:10F79000C8C18B81803589F48C81883039F4E2E0EE
:10F7A000F0E089E08093570084910DC0E0E0F0E044
:10F7B00089E080935700849106C0E3E0F0E089E09F
:10F7C0008093570084911A82DFCF8D81836C99E0FA
:10F7D000E1E0F0E0082E90935700E89507B600FCB2
:10F7E000FDCF1A821B8223E030E09BC180EC8A832C
:10F7F000CE5CDE4F188219821A821B82C253D1401E
:10F800008EC18A8190E0A0E0B0E0582F44273327D2
:10F8100022278B8190E0A0E0B0E0DC0199278827C7
:10F82000282B392B4A2B5B2B8D8190E0A0E0B0E098
:10F83000282B392B4A2B5B2B8C8190E0A0E0B0E089
:10F84000BA2FA92F982F8827282B392B4A2B5B2BCF
:10F85000220F331F441F551FC05EDE4F288339839C
:10F860004A835B83C052D1401A8259C13A81C95C34
:10F87000DE4F3883C753D140CA5CDE4F1882C6536F
:10F88000D1408B81C82EDD24CA5CDE4F488159816E
:10F89000C653D140C42AD52A933109F082C0CE5C28
:10F8A000DE4F88819981AA81BB81C253D1408050AB
:10F8B000904CA340B04030F583E0CE5CDE4FE88052
:10F8C000F9800A811B81C253D140F70100935B008C
:10F8D00080935700E89507B600FCFDCFCE5CDE4F65
:10F8E000088119812A813B81C253D14000501F4FAA
:10F8F0002F4F3F4FCE5CDE4F088319832A833B8313
:10F90000C253D140C05EDE4F488159816A817B81FC
:10F91000C052D140DE011B9631E08C9111962C91A2
:10F9200011971296C75CDE4F2883C953D140C85C3B
:10F93000DE4F1882C853D14090E0C85CDE4FE881AA
:10F94000F981C853D1408E2B9F2B0C01FA01609393
:10F950005B0030935700E89511244E5F5F4F6F4F67
:10F960007F4F0EEFE02E0FEFF02ECE0CDF1CC114F8
:10F97000D10499F685E0C05EDE4F088119812A81A5
:10F980003B81C052D140F80120935B008093570027
:10F99000E89507B600FCFDCF81E180935700E8951C
:10F9A00035C0C05EDE4F88819981AA81BB81C0527B
:10F9B000D140B695A795979587957C018601ABE0D8
:10F9C000AA2EB12CAC0EBD1E0BC0D5016D915D01F0
:10F9D000C7010F947FFE0894E11CF11C01501040F8
:10F9E0000115110591F7A60160E070E0440F551F65
:10F9F000661F771FC05EDE4FE880F9800A811B8199
:10FA0000C052D1404E0D5F1D601F711F1A82C05E33
:10FA1000DE4F488359836A837B83C052D1407FC0C5
:10FA2000FA80C55CDE4FF882CB53D140C65CDE4F16
:10FA30001882CA53D1408B81C82EDD24C65CDE4FAC
:10FA400008811981CA53D140C02AD12A1A828981DA
:10FA5000BE016D5F7F4F843121F59601C05EDE4FA0
:10FA6000E880F9800A811B81C052D1400BBFF701A9
:10FA700087919691DB018C9311969C936E5F7F4FDB
:10FA8000D801C7010296A11DB11DC05EDE4F88835B
:10FA90009983AA83BB83C052D14022503040F1F6F3
:10FAA00036C0C05EDE4F288139814A815B81C052F9
:10FAB000D1400894C108D108760100E010E0089414
:10FAC000C11CD11C0894E11CF11C011D111DE20E8A
:10FAD000F31E041F151F21BDBB27A52F942F832FB5
:10FAE00082BD2F5F3F4F4F4F5F4FF89A80B5DB01CC
:10FAF0008D93BD012E153F054007510761F7C05E8C
:10FB0000DE4F288339834A835B83C052D1409601FC
:10FB10002D5F3F4FFB01108204C080EC8A8322E0FE
:10FB200030E08BE18093C6008091C00086FFFCCF5F
:10FB30008091C00080648093C000C15DDE4FF88179
:10FB4000CF52D140F093C6008091C00086FFFCCF19
:10FB50008091C00080648093C000432F3093C60022
:10FB60008091C00086FFFCCF8091C00080648093AC
:10FB7000C000922F2093C6008091C00086FFFCCF6A
:10FB80008091C00080648093C0008EE08093C600A6
:10FB90008091C00086FFFCCF8091C000806480937C
:10FBA000C00065E1C15DDE4FE880CF52D1406E25D7
:10FBB00069276427FE01319610C090819093C6009A
:10FBC0008091C00086FFFCCF31968091C000806498
:10FBD0008093C0006927215030402115310569F715
:10FBE0006093C6008091C00086FFFCCF8091C0006A
:10FBF00080648093C00085B1805885B9772081F4F6
:10FC0000C15DDE4F0881CF52D1400F5FC15DDE4F35
:10FC10000883CF52D14090E0A0E0B0E00D941AF4F8
:10FC200027982F9880E090E020ED37E0F901319798
:10FC3000F1F7019684369105C9F700008091C00064
:10FC40008D7F8093C00081E180935700E895EE2777
:10FC5000FF270994FFCF90E00D941AF497FB092E2B
:10FC600007260AD077FD04D02ED006D000201AF443
:10FC7000709561957F4F0895F6F7909581959F4F08
:10FC80000895A1E21A2EAA1BBB1BFD010DC0AA1FDD
:10FC9000BB1FEE1FFF1FA217B307E407F50720F0F5
:10FCA000A21BB30BE40BF50B661F771F881F991F70
:10FCB0001A9469F760957095809590959B01AC01B9
:10FCC000BD01CF010895AA1BBB1B51E107C0AA1FAC
:10FCD000BB1FA617B70710F0A61BB70B881F991FED
:10FCE0005A95A9F780959095BC01CD010895F99991
:10FCF000FECF92BD81BDF89A992780B50895262F31
:10FD0000F999FECF1FBA92BD81BD20BD0FB6F89400
:0EFD1000FA9AF99A0FBE01960895F894FFCF63
:00000001FF
